{
    "contractName": "GodModeErc20Recover",
    "abi": [
        {
            "anonymous": false,
            "inputs": [
                {
                    "indexed": true,
                    "internalType": "address",
                    "name": "admin",
                    "type": "address"
                },
                {
                    "indexed": false,
                    "internalType": "contract Erc20Interface",
                    "name": "token",
                    "type": "address"
                },
                {
                    "indexed": false,
                    "internalType": "uint256",
                    "name": "recoverAmount",
                    "type": "uint256"
                }
            ],
            "name": "Recover",
            "type": "event"
        },
        {
            "anonymous": false,
            "inputs": [
                {
                    "indexed": true,
                    "internalType": "address",
                    "name": "admin",
                    "type": "address"
                },
                {
                    "indexed": false,
                    "internalType": "contract Erc20Interface[]",
                    "name": "nonRecoverableTokens",
                    "type": "address[]"
                }
            ],
            "name": "SetNonRecoverableTokens",
            "type": "event"
        },
        {
            "anonymous": false,
            "inputs": [
                {
                    "indexed": true,
                    "internalType": "address",
                    "name": "oldAdmin",
                    "type": "address"
                },
                {
                    "indexed": true,
                    "internalType": "address",
                    "name": "newAdmin",
                    "type": "address"
                }
            ],
            "name": "TransferAdmin",
            "type": "event"
        },
        {
            "inputs": [],
            "name": "__godMode_getIsRecoverInitialized",
            "outputs": [
                {
                    "internalType": "bool",
                    "name": "",
                    "type": "bool"
                }
            ],
            "stateMutability": "view",
            "type": "function"
        },
        {
            "inputs": [
                {
                    "internalType": "bool",
                    "name": "state",
                    "type": "bool"
                }
            ],
            "name": "__godMode_setIsRecoverInitialized",
            "outputs": [],
            "stateMutability": "nonpayable",
            "type": "function"
        },
        {
            "inputs": [
                {
                    "internalType": "contract Erc20Interface",
                    "name": "token",
                    "type": "address"
                },
                {
                    "internalType": "uint256",
                    "name": "recoverAmount",
                    "type": "uint256"
                }
            ],
            "name": "_recover",
            "outputs": [],
            "stateMutability": "nonpayable",
            "type": "function"
        },
        {
            "inputs": [],
            "name": "_renounceAdmin",
            "outputs": [],
            "stateMutability": "nonpayable",
            "type": "function"
        },
        {
            "inputs": [
                {
                    "internalType": "contract Erc20Interface[]",
                    "name": "tokens",
                    "type": "address[]"
                }
            ],
            "name": "_setNonRecoverableTokens",
            "outputs": [],
            "stateMutability": "nonpayable",
            "type": "function"
        },
        {
            "inputs": [
                {
                    "internalType": "address",
                    "name": "newAdmin",
                    "type": "address"
                }
            ],
            "name": "_transferAdmin",
            "outputs": [],
            "stateMutability": "nonpayable",
            "type": "function"
        },
        {
            "inputs": [],
            "name": "admin",
            "outputs": [
                {
                    "internalType": "address",
                    "name": "",
                    "type": "address"
                }
            ],
            "stateMutability": "view",
            "type": "function"
        },
        {
            "inputs": [
                {
                    "internalType": "uint256",
                    "name": "",
                    "type": "uint256"
                }
            ],
            "name": "nonRecoverableTokens",
            "outputs": [
                {
                    "internalType": "contract Erc20Interface",
                    "name": "",
                    "type": "address"
                }
            ],
            "stateMutability": "view",
            "type": "function"
        }
    ],
    "bytecode": "608060405234801561001057600080fd5b5060018054610100600160a81b0319163361010081029190911790915560405181906000907fbdd36143ee09de60bdefca70680e0f71189b2ed7acee364b53917ad433fdaf80908290a350610e718061006a6000396000f3fe608060405234801561001057600080fd5b50600436106100885760003560e01c8063cbacc9611161005b578063cbacc9611461011b578063dde4bec014610137578063e6abb5ae146101a5578063f851a440146101cb57610088565b806308b038a91461008d5780631c2872aa146100ae5780639e6ae5a0146100da578063bfa2530814610113575b600080fd5b6100ac600480360360208110156100a357600080fd5b503515156101d3565b005b6100ac600480360360408110156100c457600080fd5b506001600160a01b0381351690602001356101e6565b6100f7600480360360208110156100f057600080fd5b5035610647565b604080516001600160a01b039092168252519081900360200190f35b6100ac610671565b610123610715565b604080519115158252519081900360200190f35b6100ac6004803603602081101561014d57600080fd5b810190602081018135600160201b81111561016757600080fd5b82018360208201111561017957600080fd5b803590602001918460208302840111600160201b8311171561019a57600080fd5b50909250905061071e565b6100ac600480360360208110156101bb57600080fd5b50356001600160a01b03166109e2565b6100f7610af8565b6001805460ff1916911515919091179055565b60015461010090046001600160a01b0316331461023a576040805162461bcd60e51b815260206004820152600d60248201526c22a9292fa727aa2fa0a226a4a760991b604482015290519081900360640190fd5b6001805460ff1615151461028a576040805162461bcd60e51b815260206004820152601260248201527111549497d393d517d253925510531256915160721b604482015290519081900360640190fd5b600081116102d2576040805162461bcd60e51b815260206004820152601060248201526f4552525f5245434f5645525f5a45524f60801b604482015290519081900360640190fd5b6000826001600160a01b03166395d89b416040518163ffffffff1660e01b815260040160006040518083038186803b15801561030d57600080fd5b505afa158015610321573d6000803e3d6000fd5b505050506040513d6000823e601f3d908101601f19168201604052602081101561034a57600080fd5b8101908080516040519392919084600160201b82111561036957600080fd5b90830190602082018581111561037e57600080fd5b8251600160201b81118282018810171561039757600080fd5b82525081516020918201929091019080838360005b838110156103c45781810151838201526020016103ac565b50505050905090810190601f1680156103f15780820380516001836020036101000a031916815260200191505b5060405250505080519060200120905060008080549050905060005b818110156105d1576000818154811061042257fe5b6000918252602090912001546001600160a01b0386811691161480159061058e57506000818154811061045157fe5b6000918252602082200154604080516395d89b4160e01b815290516001600160a01b03909216926395d89b4192600480840193829003018186803b15801561049857600080fd5b505afa1580156104ac573d6000803e3d6000fd5b505050506040513d6000823e601f3d908101601f1916820160405260208110156104d557600080fd5b8101908080516040519392919084600160201b8211156104f457600080fd5b90830190602082018581111561050957600080fd5b8251600160201b81118282018810171561052257600080fd5b82525081516020918201929091019080838360005b8381101561054f578181015183820152602001610537565b50505050905090810190601f16801561057c5780820380516001836020036101000a031916815260200191505b50604052505050805190602001208314155b6105c95760405162461bcd60e51b8152600401808060200182810382526021815260200180610df86021913960400191505060405180910390fd5b60010161040d565b506001546105f1906001600160a01b038681169161010090041685610b0c565b600154604080516001600160a01b03878116825260208201879052825161010090940416927ff6891c84a6c6af32a6d052172a8acc4c631b1d5057ffa2bc1da268b6938ea2da929181900390910190a250505050565b6000818154811061065757600080fd5b6000918252602090912001546001600160a01b0316905081565b60015461010090046001600160a01b031633146106c5576040805162461bcd60e51b815260206004820152600d60248201526c22a9292fa727aa2fa0a226a4a760991b604482015290519081900360640190fd5b60015460405160009161010090046001600160a01b0316907fbdd36143ee09de60bdefca70680e0f71189b2ed7acee364b53917ad433fdaf80908390a360018054610100600160a81b0319169055565b60015460ff1690565b60015461010090046001600160a01b03163314610772576040805162461bcd60e51b815260206004820152600d60248201526c22a9292fa727aa2fa0a226a4a760991b604482015290519081900360640190fd5b60015460ff16156107bb576040805162461bcd60e51b815260206004820152600e60248201526d11549497d253925510531256915160921b604482015290519081900360640190fd5b8060005b81811015610958578383828181106107d357fe5b905060200201356001600160a01b03166001600160a01b03166395d89b416040518163ffffffff1660e01b815260040160006040518083038186803b15801561081b57600080fd5b505afa15801561082f573d6000803e3d6000fd5b505050506040513d6000823e601f3d908101601f19168201604052602081101561085857600080fd5b8101908080516040519392919084600160201b82111561087757600080fd5b90830190602082018581111561088c57600080fd5b8251600160201b8111828201881017156108a557600080fd5b82525081516020918201929091019080838360005b838110156108d25781810151838201526020016108ba565b50505050905090810190601f1680156108ff5780820380516001836020036101000a031916815260200191505b5060405250505050600084848381811061091557fe5b835460018181018655600095865260209586902090910180546001600160a01b0319166001600160a01b03969093029490940135949094161790915550016107bf565b506001805460ff19168117908190556040805160208082528082018690526101009093046001600160a01b0316927fd877543bef27da9036243421e623413c8fdd78d7d183cc93d8f3cddbd657a2ed928792879290918291908201908590850280828437600083820152604051601f909101601f19169092018290039550909350505050a2505050565b60015461010090046001600160a01b03163314610a36576040805162461bcd60e51b815260206004820152600d60248201526c22a9292fa727aa2fa0a226a4a760991b604482015290519081900360640190fd5b6001600160a01b038116610a91576040805162461bcd60e51b815260206004820152601a60248201527f4552525f5345545f41444d494e5f5a45524f5f41444452455353000000000000604482015290519081900360640190fd5b6001546040516001600160a01b0380841692610100900416907fbdd36143ee09de60bdefca70680e0f71189b2ed7acee364b53917ad433fdaf8090600090a3600180546001600160a01b0390921661010002610100600160a81b0319909216919091179055565b60015461010090046001600160a01b031681565b604080516001600160a01b038416602482015260448082018490528251808303909101815260649091019091526020810180516001600160e01b031663a9059cbb60e01b179052610b5e908490610b63565b505050565b6060610ba583836040518060400160405280601d81526020017f4552525f534146455f45524332305f4c4f575f4c4556454c5f43414c4c000000815250610c17565b805190915015610b5e57808060200190516020811015610bc457600080fd5b5051610b5e576040805162461bcd60e51b815260206004820152601e60248201527f4552525f534146455f45524332305f45524332305f4f5045524154494f4e0000604482015290519081900360640190fd5b6060610c2b846001600160a01b0316610dbb565b610c665760405162461bcd60e51b8152600401808060200182810382526023815260200180610e196023913960400191505060405180910390fd5b60006060856001600160a01b0316856040518082805190602001908083835b60208310610ca45780518252601f199092019160209182019101610c85565b6001836020036101000a0380198251168184511680821785525050505050509050019150506000604051808303816000865af19150503d8060008114610d06576040519150601f19603f3d011682016040523d82523d6000602084013e610d0b565b606091505b50915091508115610d1f579150610db49050565b805115610d2f5780518082602001fd5b8360405162461bcd60e51b81526004018080602001828103825283818151815260200191508051906020019080838360005b83811015610d79578181015183820152602001610d61565b50505050905090810190601f168015610da65780820380516001836020036101000a031916815260200191505b509250505060405180910390fd5b9392505050565b6000813f7fc5d2460186f7233c927e7db2dcc703c0e500b653ca82273b7bfad8045d85a470818114801590610def57508115155b94935050505056fe4552525f5245434f5645525f4e4f4e5f5245434f56455241424c455f544f4b454e4552525f534146455f45524332305f43414c4c5f544f5f4e4f4e5f434f4e5452414354a2646970667358221220c5f18210e18e683eeeeec486b300380f5ae1305efc6d9f90999600a994a6483564736f6c63430007040033",
    "sourcePath": "/Users/paulrberg/Workspace/Packages/@paulrberg/contracts/contracts/test/GodModeErc20Recover.sol",
    "compiler": {
        "name": "solc",
        "version": "0.7.4+commit.3f05b770"
    },
    "functionHashes": {
        "__godMode_getIsRecoverInitialized()": "cbacc961",
        "__godMode_setIsRecoverInitialized(bool)": "08b038a9",
        "_recover(address,uint256)": "1c2872aa",
        "_renounceAdmin()": "bfa25308",
        "_setNonRecoverableTokens(address[])": "dde4bec0",
        "_transferAdmin(address)": "e6abb5ae",
        "admin()": "f851a440",
        "nonRecoverableTokens(uint256)": "9e6ae5a0"
    },
    "gasEstimates": {
        "creation": {
            "codeDepositCost": "739400",
            "executionCost": "23163",
            "totalCost": "762563"
        },
        "external": {
            "__godMode_getIsRecoverInitialized()": "1010",
            "__godMode_setIsRecoverInitialized(bool)": "21032",
            "_recover(address,uint256)": "infinite",
            "_renounceAdmin()": "24251",
            "_setNonRecoverableTokens(address[])": "infinite",
            "_transferAdmin(address)": "24379",
            "admin()": "1114",
            "nonRecoverableTokens(uint256)": "2015"
        }
    }
}