{
    "contractName": "Erc20Permit",
    "abi": [
        {
            "inputs": [
                {
                    "internalType": "string",
                    "name": "name_",
                    "type": "string"
                },
                {
                    "internalType": "string",
                    "name": "symbol_",
                    "type": "string"
                },
                {
                    "internalType": "uint8",
                    "name": "decimals_",
                    "type": "uint8"
                }
            ],
            "stateMutability": "nonpayable",
            "type": "constructor"
        },
        {
            "anonymous": false,
            "inputs": [
                {
                    "indexed": true,
                    "internalType": "address",
                    "name": "owner",
                    "type": "address"
                },
                {
                    "indexed": true,
                    "internalType": "address",
                    "name": "spender",
                    "type": "address"
                },
                {
                    "indexed": false,
                    "internalType": "uint256",
                    "name": "value",
                    "type": "uint256"
                }
            ],
            "name": "Approval",
            "type": "event"
        },
        {
            "anonymous": false,
            "inputs": [
                {
                    "indexed": true,
                    "internalType": "address",
                    "name": "account",
                    "type": "address"
                },
                {
                    "indexed": false,
                    "internalType": "uint256",
                    "name": "burnAmount",
                    "type": "uint256"
                }
            ],
            "name": "Burn",
            "type": "event"
        },
        {
            "anonymous": false,
            "inputs": [
                {
                    "indexed": true,
                    "internalType": "address",
                    "name": "account",
                    "type": "address"
                },
                {
                    "indexed": false,
                    "internalType": "uint256",
                    "name": "mintAmount",
                    "type": "uint256"
                }
            ],
            "name": "Mint",
            "type": "event"
        },
        {
            "anonymous": false,
            "inputs": [
                {
                    "indexed": true,
                    "internalType": "address",
                    "name": "from",
                    "type": "address"
                },
                {
                    "indexed": true,
                    "internalType": "address",
                    "name": "to",
                    "type": "address"
                },
                {
                    "indexed": false,
                    "internalType": "uint256",
                    "name": "value",
                    "type": "uint256"
                }
            ],
            "name": "Transfer",
            "type": "event"
        },
        {
            "inputs": [],
            "name": "DOMAIN_SEPARATOR",
            "outputs": [
                {
                    "internalType": "bytes32",
                    "name": "",
                    "type": "bytes32"
                }
            ],
            "stateMutability": "view",
            "type": "function"
        },
        {
            "inputs": [],
            "name": "PERMIT_TYPEHASH",
            "outputs": [
                {
                    "internalType": "bytes32",
                    "name": "",
                    "type": "bytes32"
                }
            ],
            "stateMutability": "view",
            "type": "function"
        },
        {
            "inputs": [
                {
                    "internalType": "address",
                    "name": "owner",
                    "type": "address"
                },
                {
                    "internalType": "address",
                    "name": "spender",
                    "type": "address"
                }
            ],
            "name": "allowance",
            "outputs": [
                {
                    "internalType": "uint256",
                    "name": "",
                    "type": "uint256"
                }
            ],
            "stateMutability": "view",
            "type": "function"
        },
        {
            "inputs": [
                {
                    "internalType": "address",
                    "name": "spender",
                    "type": "address"
                },
                {
                    "internalType": "uint256",
                    "name": "amount",
                    "type": "uint256"
                }
            ],
            "name": "approve",
            "outputs": [
                {
                    "internalType": "bool",
                    "name": "",
                    "type": "bool"
                }
            ],
            "stateMutability": "nonpayable",
            "type": "function"
        },
        {
            "inputs": [
                {
                    "internalType": "address",
                    "name": "account",
                    "type": "address"
                }
            ],
            "name": "balanceOf",
            "outputs": [
                {
                    "internalType": "uint256",
                    "name": "",
                    "type": "uint256"
                }
            ],
            "stateMutability": "view",
            "type": "function"
        },
        {
            "inputs": [],
            "name": "decimals",
            "outputs": [
                {
                    "internalType": "uint8",
                    "name": "",
                    "type": "uint8"
                }
            ],
            "stateMutability": "view",
            "type": "function"
        },
        {
            "inputs": [
                {
                    "internalType": "address",
                    "name": "spender",
                    "type": "address"
                },
                {
                    "internalType": "uint256",
                    "name": "subtractedValue",
                    "type": "uint256"
                }
            ],
            "name": "decreaseAllowance",
            "outputs": [
                {
                    "internalType": "bool",
                    "name": "",
                    "type": "bool"
                }
            ],
            "stateMutability": "nonpayable",
            "type": "function"
        },
        {
            "inputs": [
                {
                    "internalType": "address",
                    "name": "spender",
                    "type": "address"
                },
                {
                    "internalType": "uint256",
                    "name": "addedValue",
                    "type": "uint256"
                }
            ],
            "name": "increaseAllowance",
            "outputs": [
                {
                    "internalType": "bool",
                    "name": "",
                    "type": "bool"
                }
            ],
            "stateMutability": "nonpayable",
            "type": "function"
        },
        {
            "inputs": [],
            "name": "name",
            "outputs": [
                {
                    "internalType": "string",
                    "name": "",
                    "type": "string"
                }
            ],
            "stateMutability": "view",
            "type": "function"
        },
        {
            "inputs": [
                {
                    "internalType": "address",
                    "name": "",
                    "type": "address"
                }
            ],
            "name": "nonces",
            "outputs": [
                {
                    "internalType": "uint256",
                    "name": "",
                    "type": "uint256"
                }
            ],
            "stateMutability": "view",
            "type": "function"
        },
        {
            "inputs": [
                {
                    "internalType": "address",
                    "name": "owner",
                    "type": "address"
                },
                {
                    "internalType": "address",
                    "name": "spender",
                    "type": "address"
                },
                {
                    "internalType": "uint256",
                    "name": "amount",
                    "type": "uint256"
                },
                {
                    "internalType": "uint256",
                    "name": "deadline",
                    "type": "uint256"
                },
                {
                    "internalType": "uint8",
                    "name": "v",
                    "type": "uint8"
                },
                {
                    "internalType": "bytes32",
                    "name": "r",
                    "type": "bytes32"
                },
                {
                    "internalType": "bytes32",
                    "name": "s",
                    "type": "bytes32"
                }
            ],
            "name": "permit",
            "outputs": [],
            "stateMutability": "nonpayable",
            "type": "function"
        },
        {
            "inputs": [],
            "name": "symbol",
            "outputs": [
                {
                    "internalType": "string",
                    "name": "",
                    "type": "string"
                }
            ],
            "stateMutability": "view",
            "type": "function"
        },
        {
            "inputs": [],
            "name": "totalSupply",
            "outputs": [
                {
                    "internalType": "uint256",
                    "name": "",
                    "type": "uint256"
                }
            ],
            "stateMutability": "view",
            "type": "function"
        },
        {
            "inputs": [
                {
                    "internalType": "address",
                    "name": "recipient",
                    "type": "address"
                },
                {
                    "internalType": "uint256",
                    "name": "amount",
                    "type": "uint256"
                }
            ],
            "name": "transfer",
            "outputs": [
                {
                    "internalType": "bool",
                    "name": "",
                    "type": "bool"
                }
            ],
            "stateMutability": "nonpayable",
            "type": "function"
        },
        {
            "inputs": [
                {
                    "internalType": "address",
                    "name": "sender",
                    "type": "address"
                },
                {
                    "internalType": "address",
                    "name": "recipient",
                    "type": "address"
                },
                {
                    "internalType": "uint256",
                    "name": "amount",
                    "type": "uint256"
                }
            ],
            "name": "transferFrom",
            "outputs": [
                {
                    "internalType": "bool",
                    "name": "",
                    "type": "bool"
                }
            ],
            "stateMutability": "nonpayable",
            "type": "function"
        },
        {
            "inputs": [],
            "name": "version",
            "outputs": [
                {
                    "internalType": "string",
                    "name": "",
                    "type": "string"
                }
            ],
            "stateMutability": "view",
            "type": "function"
        }
    ],
    "bytecode": "60806040523480156200001157600080fd5b506040516200125a3803806200125a833981810160405260608110156200003757600080fd5b81019080805160405193929190846401000000008211156200005857600080fd5b9083019060208201858111156200006e57600080fd5b82516401000000008111828201881017156200008957600080fd5b82525081516020918201929091019080838360005b83811015620000b85781810151838201526020016200009e565b50505050905090810190601f168015620000e65780820380516001836020036101000a031916815260200191505b50604052602001805160405193929190846401000000008211156200010a57600080fd5b9083019060208201858111156200012057600080fd5b82516401000000008111828201881017156200013b57600080fd5b82525081516020918201929091019080838360005b838110156200016a57818101518382015260200162000150565b50505050905090810190601f168015620001985780820380516001836020036101000a031916815260200191505b50604052602090810151855190935085925084918491620001c0916003919086019062000301565b508151620001d690600490602085019062000301565b506002805460ff191660ff92909216919091178155604051600380544695507f8b73c3c69bb8fe3d512ecc4cf759cc79239f7b179b0ffacaa9a75d522b39400f945090928291849161010060018316150260001901909116048015620002765780601f106200025357610100808354040283529182019162000276565b820191906000526020600020905b81548152906001019060200180831162000261575b505060408051918290038220828201825260018352603160f81b602093840152815180840196909652858201527fc89efdaa54c0f20c7adf612882df0950f5a951637e0307cdcb4c672f298b8bc6606086015260808501959095523060a0808601919091528551808603909101815260c09094019094525050805191012060005550620003ad915050565b828054600181600116156101000203166002900490600052602060002090601f01602090048101928262000339576000855562000384565b82601f106200035457805160ff191683800117855562000384565b8280016001018555821562000384579182015b828111156200038457825182559160200191906001019062000367565b506200039292915062000396565b5090565b5b8082111562000392576000815560010162000397565b610e9d80620003bd6000396000f3fe608060405234801561001057600080fd5b50600436106101005760003560e01c806354fd4d5011610097578063a457c2d711610066578063a457c2d7146102c8578063a9059cbb146102f4578063d505accf14610320578063dd62ed3e1461037357610100565b806354fd4d501461026c57806370a08231146102745780637ecebe001461029a57806395d89b41146102c057610100565b806330adf81f116100d357806330adf81f14610212578063313ce5671461021a5780633644e51514610238578063395093511461024057610100565b806306fdde0314610105578063095ea7b31461018257806318160ddd146101c257806323b872dd146101dc575b600080fd5b61010d6103a1565b6040805160208082528351818301528351919283929083019185019080838360005b8381101561014757818101518382015260200161012f565b50505050905090810190601f1680156101745780820380516001836020036101000a031916815260200191505b509250505060405180910390f35b6101ae6004803603604081101561019857600080fd5b506001600160a01b03813516906020013561042f565b604080519115158252519081900360200190f35b6101ca610445565b60408051918252519081900360200190f35b6101ae600480360360608110156101f257600080fd5b506001600160a01b0381358116916020810135909116906040013561044b565b6101ca6104ee565b610222610512565b6040805160ff9092168252519081900360200190f35b6101ca61051b565b6101ae6004803603604081101561025657600080fd5b506001600160a01b038135169060200135610521565b61010d6105b8565b6101ca6004803603602081101561028a57600080fd5b50356001600160a01b03166105d5565b6101ca600480360360208110156102b057600080fd5b50356001600160a01b03166105f0565b61010d610602565b6101ae600480360360408110156102de57600080fd5b506001600160a01b03813516906020013561065d565b6101ae6004803603604081101561030a57600080fd5b506001600160a01b0381351690602001356106de565b610371600480360360e081101561033657600080fd5b506001600160a01b03813581169160208101359091169060408101359060608101359060ff6080820135169060a08101359060c001356106eb565b005b6101ca6004803603604081101561038957600080fd5b506001600160a01b0381358116916020013516610999565b6003805460408051602060026001851615610100026000190190941693909304601f810184900484028201840190925281815292918301828280156104275780601f106103fc57610100808354040283529160200191610427565b820191906000526020600020905b81548152906001019060200180831161040a57829003601f168201915b505050505081565b600061043c3384846109c4565b50600192915050565b60055481565b6000610458848484610ab0565b6001600160a01b038416600090815260066020908152604080832033845290915281205481906104889085610c56565b9092509050600082600481111561049b57fe5b146104d75760405162461bcd60e51b815260040180806020018281038252602e815260200180610d5e602e913960400191505060405180910390fd5b6104e28633836109c4565b50600195945050505050565b7ffc77c2b9d30fe91687fd39abb7d16fcdfe1472d065740051ab8b13e4bf4a617f81565b60025460ff1681565b60005481565b3360009081526006602090815260408083206001600160a01b0386168452909152812054819081906105539085610c7c565b9092509050600082600481111561056657fe5b146105a25760405162461bcd60e51b8152600401808060200182810382526025815260200180610d8c6025913960400191505060405180910390fd5b6105ad3386836109c4565b506001949350505050565b604051806040016040528060018152602001603160f81b81525081565b6001600160a01b031660009081526007602052604090205490565b60016020526000908152604090205481565b6004805460408051602060026001851615610100026000190190941693909304601f810184900484028201840190925281815292918301828280156104275780601f106103fc57610100808354040283529160200191610427565b3360009081526006602090815260408083206001600160a01b03861684529091528120548190819061068f9085610c56565b909250905060008260048111156106a257fe5b146105a25760405162461bcd60e51b8152600401808060200182810382526026815260200180610cf36026913960400191505060405180910390fd5b600061043c338484610ab0565b6001600160a01b0387166107305760405162461bcd60e51b8152600401808060200182810382526023815260200180610ca36023913960400191505060405180910390fd5b6001600160a01b0386166107755760405162461bcd60e51b8152600401808060200182810382526025815260200180610db16025913960400191505060405180910390fd5b428410156107ca576040805162461bcd60e51b815260206004820152601860248201527f4552525f45524332305f5045524d49545f455850495245440000000000000000604482015290519081900360640190fd5b6001600160a01b038088166000818152600160208181526040808420805480850190915581517ffc77c2b9d30fe91687fd39abb7d16fcdfe1472d065740051ab8b13e4bf4a617f8185015280830196909652958c166060860152608085018b905260a085019590955260c08085018a90528551808603909101815260e085018652805190820120835461190160f01b61010087015261010286015261012280860182905286518087039091018152610142860180885281519184019190912090859052610162860180885281905260ff8a166101828701526101a286018990526101c2860188905295519095946101e28082019392601f1981019281900390910190855afa1580156108e0573d6000803e3d6000fd5b5050604051601f1901519150506001600160a01b0381166109325760405162461bcd60e51b815260040180806020018281038252602d815260200180610cc6602d913960400191505060405180910390fd5b896001600160a01b0316816001600160a01b0316146109825760405162461bcd60e51b8152600401808060200182810382526022815260200180610dd66022913960400191505060405180910390fd5b61098d8a8a8a6109c4565b50505050505050505050565b6001600160a01b03918216600090815260066020908152604080832093909416825291909152205490565b6001600160a01b038316610a095760405162461bcd60e51b8152600401808060200182810382526023815260200180610e456023913960400191505060405180910390fd5b6001600160a01b038216610a4e5760405162461bcd60e51b8152600401808060200182810382526021815260200180610d196021913960400191505060405180910390fd5b6001600160a01b03808416600081815260066020908152604080832094871680845294825291829020859055815185815291517f8c5be1e5ebec7d5bd14f71427d1e84f3dd0314c0f7b2291e5b200ac8c7c3b9259281900390910190a3505050565b6001600160a01b038316610af55760405162461bcd60e51b8152600401808060200182810382526024815260200180610d3a6024913960400191505060405180910390fd5b6001600160a01b038216610b3a5760405162461bcd60e51b8152600401808060200182810382526022815260200180610df86022913960400191505060405180910390fd5b6001600160a01b03831660009081526007602052604081205481908190610b619085610c56565b90935091506000836004811115610b7457fe5b14610bb05760405162461bcd60e51b815260040180806020018281038252602b815260200180610e1a602b913960400191505060405180910390fd5b6001600160a01b0380871660009081526007602052604080822085905591871681522054610bde9085610c7c565b90935090506000836004811115610bf157fe5b14610bf857fe5b6001600160a01b038086166000818152600760209081526040918290208590558151888152915192938a16927fddf252ad1be2c89b69c2b068fc378daa952ba7f163c4a11628f55a4df523b3ef9281900390910190a3505050505050565b600080838311610c6d575060009050818303610c75565b506003905060005b9250929050565b600080838301848110610c9457600092509050610c75565b600260009250925050610c7556fe4552525f45524332305f5045524d49545f4f574e45525f5a45524f5f414444524553534552525f45524332305f5045524d49545f5245434f56455245445f4f574e45525f5a45524f5f414444524553534552525f45524332305f44454352454153455f414c4c4f57414e43455f554e444552464c4f574552525f45524332305f415050524f56455f544f5f5a45524f5f414444524553534552525f45524332305f5452414e534645525f46524f4d5f5a45524f5f414444524553534552525f45524332305f5452414e534645525f46524f4d5f494e53554646494349454e545f414c4c4f57414e43454552525f45524332305f494e4352454153455f414c4c4f57414e43455f4f564552464c4f574552525f45524332305f5045524d49545f5350454e4445525f5a45524f5f414444524553534552525f45524332305f5045524d49545f494e56414c49445f5349474e41545552454552525f45524332305f5452414e534645525f544f5f5a45524f5f414444524553534552525f45524332305f5452414e534645525f53454e4445525f42414c414e43455f554e444552464c4f574552525f45524332305f415050524f56455f46524f4d5f5a45524f5f41444452455353a264697066735822122092c0e26e035a18e99b8e3db0c332b2c40d22b30ef6728b107c62c27fda43327d64736f6c63430007040033",
    "sourcePath": "/Users/paulrberg/Workspace/Packages/@paulrberg/contracts/contracts/token/erc20/Erc20Permit.sol",
    "compiler": {
        "name": "solc",
        "version": "0.7.4+commit.3f05b770"
    },
    "functionHashes": {
        "DOMAIN_SEPARATOR()": "3644e515",
        "PERMIT_TYPEHASH()": "30adf81f",
        "allowance(address,address)": "dd62ed3e",
        "approve(address,uint256)": "095ea7b3",
        "balanceOf(address)": "70a08231",
        "decimals()": "313ce567",
        "decreaseAllowance(address,uint256)": "a457c2d7",
        "increaseAllowance(address,uint256)": "39509351",
        "name()": "06fdde03",
        "nonces(address)": "7ecebe00",
        "permit(address,address,uint256,uint256,uint8,bytes32,bytes32)": "d505accf",
        "symbol()": "95d89b41",
        "totalSupply()": "18160ddd",
        "transfer(address,uint256)": "a9059cbb",
        "transferFrom(address,address,uint256)": "23b872dd",
        "version()": "54fd4d50"
    },
    "gasEstimates": {
        "creation": {
            "codeDepositCost": "748200",
            "executionCost": "infinite",
            "totalCost": "infinite"
        },
        "external": {
            "DOMAIN_SEPARATOR()": "1065",
            "PERMIT_TYPEHASH()": "221",
            "allowance(address,address)": "1338",
            "approve(address,uint256)": "infinite",
            "balanceOf(address)": "1187",
            "decimals()": "1058",
            "decreaseAllowance(address,uint256)": "infinite",
            "increaseAllowance(address,uint256)": "infinite",
            "name()": "infinite",
            "nonces(address)": "1191",
            "permit(address,address,uint256,uint256,uint8,bytes32,bytes32)": "infinite",
            "symbol()": "infinite",
            "totalSupply()": "1066",
            "transfer(address,uint256)": "infinite",
            "transferFrom(address,address,uint256)": "infinite",
            "version()": "infinite"
        }
    }
}